:020000041000EA
:10000000002008205D0100101B0100101D010010E0
:100010001101001011010010110100101101001058
:100020001901001019010010190100101F01001022
:10003000110100101901001021010010230100100E
:100040001101001011010010110100101101001028
:100050001101001011010010110100101101001018
:100060001101001011010010110100101101001008
:1000700011010010110100101101001011010010F8
:1000800011010010110100101101001011010010E8
:1000900011010010110100101101001011010010D8
:1000A00011010010110100101101001011010010C8
:1000B00011010010110100101101001011010010B8
:1000C00011010010110100101101001011010010A8
:1000D0001101001011010010110100101101001098
:1000E0001101001011010010110100101101001088
:1000F0001101001011010010110100101101001078
:100100001101001011010010110100101101001067
:10011000EFF30580103800BE00BE00BE00BE00BE7A
:1001200000BE00BEF2EB8871FC5A00101C5B001090
:10013000A001001090A31AE7D3DEFFFF42012110B7
:10014000FF010000206E0000793512AB4FF0000077
:100150001E49086006C881F3088810474FF05040D8
:10016000006810B14FF00000F2E70DA40ECC00299A
:1001700002D000F012F8F9E71549164A002000E015
:1001800001C19142FCD11449884714498847144958
:10019000884700BEFDE701C901C29A42FBD3704700
:1001A0001C5B0010100100204C150020586F00103F
:1001B0000000082000000820586F001000100820E0
:1001C00000100820000000007047000008ED00E06B
:1001D0004C150020881D002035380010190600102D
:1001E0002D380010F8B500BF064B0749C91A891011
:1001F00048BF0131491003D0044B0BB101481847E7
:10020000704700BF4C1500204C1500200000000076
:1002100008B5054B1BB105490548AFF30080BDE8A3
:100220000840FFF7E1BF00BF00000000341D0020C0
:10023000185700104FF47A72014B1A60704700BFD4
:10024000A0140020FA22014B1A607047A01400206D
:1002500040F6C412014B1A60704700BFA014002082
:1002600008B503F0B9FE00280CBFFA224FF47A72E9
:10027000014B1A6008BD00BFA0140020704700BFEA
:1002800000207047704700BF10B500244FF06B0C82
:1002900084B003AA0223682100940E48ADF80CC074
:1002A00005F0D4F81C220223ADF80C20682103AA23
:1002B0000094084805F0CAF841F61B0C0223682197
:1002C00003AA00940348ADF80CC005F0BFF804B0D1
:1002D00010BD00BF3C15002001234FF03B0C70B552
:1002E00088B006460C46154600930DF10F026821B2
:1002F00033488DF80FC005F0A9F800220E230092B4
:10030000682104AA2E4805F0A9F8BDF81220BDF80E
:100310001430D2BA05EE902ABDF81620DBBAD2BA54
:1003200007EE902A06EE103ABDF81030B8EEE75A04
:10033000DBBA06EE903ABDF81A30DFED223ADBBAAE
:1003400007EE903A9FED204AF8EEE55AB8EEC66AFD
:10035000F8EEE66AF8EEE77A26EE236A67EE847A2C
:1003600065EEA35A66EEA36ABDF818C0BDF81C304E
:100370009CFABCF2DBBA86ED026AC6ED015AC6ED04
:10038000006ADFED122AC4ED017A07EE102A07EEAB
:10039000903A9FED0F3AC5EE224AB8EEC77AF8EED2
:1003A000E77A27EE047A34EE836A67EE847A84ED86
:1003B000007AC4ED027A85ED006A08B070BD00BF16
:1003C0003C15002040DA7F381405FA3B0000AA43B0
:1003D000B81E1242F0B52DED028B00208FB004F054
:1003E00007FC002859D04FF05043804E5C683278AB
:1003F00004F480317E4DC4F3004472B169B92B78A6
:1004000083F001032B70002B00F0958079497A4826
:1004100003F0E6FB322001F017F80F232D7834703B
:1004200045EC4030002D3CD0744DB3EE0E8A2C6864
:10043000204601F060FD07EE900A67EE887AFDEE37
:10044000E77A2046CDED057A01F052FD06EE104A1E
:10045000DFED6B7A07EE100A76EE277ADFED696A38
:1004600027EE087AF4EEE67ABDEEC77AF1EE10FADE
:100470009DF914608DED057ACCBF0023C5ED007A9F
:100480009DF91440C8BF2B6000223346022110465C
:10049000CDE90122009404F0C7FB0FB0BDEC028B44
:1004A000F0BD07AA0BA908A8FFF716FFB6EE007A61
:1004B0009DED088AB4EEC78AF1EE10FADDED097AF7
:1004C00020DDF4EEC77AF1EE10FA5ADC9FED4E7A99
:1004D000F4EEC77AF1EE10FA72DCBEEE007AF4EEBA
:1004E000C77AF1EE10FA75D49FED487AF4EEC77A28
:1004F000F1EE10FA4CBF01240024052564002E46BD
:10050000274643E09FED407AB4EEC78AF1EE10FA39
:1005100013DCBEEE007AB4EEC78AF1EE10FA55D4C1
:100520009FED3A7AB4EEC78AF1EE10FA01D56FF07A
:1005300001052E4603E0364969E702252E46B6EE50
:10054000007AF4EEC77AF1EE10FA31DC9FED2E7AE4
:10055000F4EEC77AF1EE10FA2EDCBEEE007AF4EE7D
:10056000C77AF1EE10FA3AD49FED287AF4EEC77A02
:10057000F1EE10FA36D43446002E85D000273C46E2
:1005800004E06FF0040705253C462E4617EE900A5E
:1005900005F082F8CDE9020118EE100A05F07CF8AA
:1005A0003A46CDE9000129461A4803F019FB6BE7EA
:1005B0006FF004073C46E9E76FF001073C46E5E7CA
:1005C0006FF0010705253C462E46DFE76FF0040576
:1005D0002E46B4E705273D463C463E46D6E705276E
:1005E0003C46D3E702273C46D0E700BFA4140020D6
:1005F000851D00201857001028570010EC18002007
:100600000AD7A33DD00FC940CDCC4C3ECDCC4CBE7B
:10061000245700103C5700102DE9F04383B004F03C
:1006200025FF4FF4FA6000F00FFF0123002001A91D
:10063000ADF8043003F0FAFC4F4B0BB1AFF3008080
:100640004E494F4804F0DCFE0321002000F038F949
:100650000321012000F034F900220121104600F0AE
:100660004DF901210022084600F048F9FFF70CFE81
:10067000102000F057F94FF00005102045EC440021
:100680000022012100F03AF90F2000F04BF90F246D
:100690004FF0010646EC444045EC404046EC4040FB
:1006A000C82000F0D1FE45EC4040C82000F0CCFE50
:1006B00046EC4040C82000F0C7FE45EC4040C82052
:1006C00000F0C2FE2F4803F00BFA2F4D2F4FDFF83A
:1006D000C8802F4C2F4E00214FF0FF3003F020FD3B
:1006E0002B68D3B100F0A2FF034600293FD04FF49E
:1006F0007A72002304F0D4FF3B682A68C01A904243
:100700000BD3134498F800003B6004F0B1FE98F856
:10071000003083F0010388F8003000F087FF0346C3
:1007200099B14FF47A72002304F0BAFFD4F8009024
:10073000A0EB09000928CED909F10A03236003F0D0
:1007400053FC88B103F058FCC5E7A6FB0330D4F88E
:100750000090C9EB90100928BDD909F10A03236064
:1007600003F042FC0028EDD1FFF734FEB3E7A6FB0F
:1007700003308009C0E700BF00000000801A0600B7
:100780003C15002068570010A0140020781D0020A0
:100790007C1D0020D34D6210841D0020004870474E
:1007A0000C5A0010004870471C5900100048704750
:1007B000F8580010000000002DE9F04389B000282F
:1007C00056D0032820D06BD8394B3A4E53F82040EE
:1007D000204604F025FF2028054628BF202550B1DB
:1007E0003146621E1346023312F8010F1B1B9D4255
:1007F00021F8020FF6D805F101084FEA480848F43D
:1008000040781FFA88F83AE02B4B002B3DD010219E
:10081000684604F02FFE1028814628BF4FF01009CB
:100820004FEA890808F1020848F440786F461FFA39
:1008300088F8002836D01F4E204C35460DF1100C9C
:10084000B94494E80F008CE80F0017F8013B08A9A1
:1008500003F00F026A44127C01EB131E1EF8103CD9
:10086000AA80B94505F1040525F8023CE9D106E066
:100870004FF441780E4B0F4E1B681B8873800D4858
:10088000A6F8008009B0BDE8F08307A3D3E90023F0
:1008900040F222384FF008096F46CDE90023CAE73D
:1008A0000020EFE7034EEAE70123456789ABCDEF70
:1008B000A81400202817002075540010B857001005
:1008C00010B44FF480740C4B53F8202003EB8003DA
:1008D000C00082F0400200F1804003F5805C02F02D
:1008E000C00200F5203003F54053CCF800204160F1
:1008F0001C605DF8044B70470480034010B4084C42
:10090000C90041EA820154F8202004EB80035140E1
:1009100003F5805301F00C015DF8044B196070473A
:100920000480034030B44FF0000343EC440043EC38
:10093000400005254FF480740B4BC20053F8201083
:1009400003EB800081F0400102F1804303F5203386
:1009500001F0C00200F5805100F540500A605D6072
:10096000046030BC704700BF048003400FB400B582
:1009700083B0049C074803F0B3F83CB105A92046B6
:10098000019102F039FF044803F0AAF8012002F0B7
:100990004BFF00BFE4570010F457001070B58646B7
:1009A000EFF3108572B6124CD4E8CF6F0120002E01
:1009B000FAD1C4E8460F002EF6D1BFF35F8F4FF097
:1009C000010CC80801F007030CFA03F31EF800C07D
:1009D0001CEA030608D14CEA030C0EF800C0C4E878
:1009E0008F6F85F3108870BD1046FFF7BFFF00BF03
:1009F000B3170020F8B5EFF3108772B61C4ED6E897
:100A0000CF5F0124002DFAD1C6E8454F002DF6D165
:100A1000BFF35F8F9A421BD8012502E00132934257
:100A200022D3D40810F804E002F0070C05FA0CFCFD
:100A30001EEA0C0FF2D14EEA0C0E00F804E010464C
:100A40000023C6E88F3F87F31088984207DBF8BD84
:100A50000023C6E88F3F87F310884FF0FF3000294E
:100A6000F5D00698FFF782FF4FF0FF30E8E700BFB0
:100A7000B3170020044A1078431CDBB2182B28BFA0
:100A800010231370704700BFB814002010B5054C38
:100A900082B001461F23182200940348FFF7AAFFE3
:100AA00002B010BDF8570010F01800204FF0E022FF
:100AB000936843F000539360704700BF0021044BDC
:100AC00003F12002C3E88F1F01339342FAD170472C
:100AD000A81700204FF0E0234FF08032C3F8002425
:100AE000C3F80424C3F80824C3F80C24C3F8102462
:100AF000C3F81424C3F81824C3F81C24C3F8202412
:100B0000C3F82424C3F82824C3F82C24C3F83024C1
:100B100062B67047012300F01F029340400941B1C3
:100B2000800000F1604000F56140C0F88031036052
:100B30007047024A203042F82030704700E100E060
:100B4000F8B50D46EFF3108772B6124ED6E8CF2FE8
:100B50000123002AFAD1C6E8423F002AF6D1BFF3AA
:100B60005F8F0D4B00F110049B680C4A53F8243042
:100B7000934203D0994201D000F072FE064B9B686D
:100B800043F82450BFF35F8F0023C6E88F3F87F3FD
:100B90001088F8BDB117002000ED00E01101001031
:100BA0002DE9F04F81468B46164683B0EFF3108354
:100BB00072B6DFF8D0A10093DAE8CF1F0123002935
:100BC000FAD1CAE8413F0029F6D1BFF35F8F664BE7
:100BD00093F90040002CC0F2A080644D04EB440760
:100BE00005EB870898F8061009F110091970604B99
:100BF000BF009B6853F829006300411B2F292FD9A0
:100C00005C49884240F0A4801C445B4B02372F446F
:100C1000043BDB1BC3F34A036FEAC3434FF4214198
:100C20006FEAD34325F8241005EB840463804BF668
:100C30000153A380FF2348F00100E671C4F808B017
:100C4000A3714B4B9B6843F82900BFF35F8F0023D0
:100C5000CAE88F3F009B83F3108803B0BDE8F08F94
:100C600020F0010E9EF80710B1422ED84FF4214318
:100C7000EB53414BB91C2944043B04375B1A2F4406
:100C8000AEF10401C91BC1F34A043C49C3F34A0352
:100C90000B432143A8F804103949A8F802304AF65A
:100CA000AA2073465B1B5B415843000D88F8076020
:100CB00088F80600C8F808B048F00100CEF8001027
:100CC000BFE7D179B1422ED996469EF906C00CEB0A
:100CD0004C02BCF1000F05EB8202F2DA4BF6015137
:100CE0000EF10402A8F10407BF1AC7F34A076FEA1E
:100CF000C7476FEAD7478EF8064003EB0408204C3D
:100D000005EB8803AEF8047045F82840998083F815
:100D100006C0DE71C3F808B093E700F0A1FD124BE6
:100D200093F9004059E7724632F8041F490514D47C
:100D30004915023102EB410101916FF00701C91B16
:100D4000019F491B3944C1F34A0141F46041C9E79D
:100D5000019300F085FD019B56E701F5FF1101F5B8
:100D6000FF511F31E4E700BF831D0020BC140020A9
:100D700000ED00E011010010EC14002000E0FFFF86
:100D800001488047B1170020F0B5EFF30585EDB2BB
:100D9000EFF3108C72B62649D1E8CF2F0123002A39
:100DA000FAD1C1E8423F002AF6D1BFF35F8F214E4E
:100DB00040F0010EB4684AF6AA2354F825701E4A82
:100DC0000446A41A644163431B0D77455BB21BD0F4
:100DD00092F906409C421CD092F912409C4223D0CA
:100DE00092F91E409C4221D092F92A409C4208BFB1
:100DF00003240FD0114A0024157813708571C1E8BF
:100E00008F4F8CF31088F0BDB2680D4C42F825402E
:100E1000F0E7002404EB440402EB8402FF24947105
:100E20004BF601549480E5E70124F3E70224F1E74F
:100E3000B117002000ED00E0BC140020831D00204D
:100E400011010010014B0B4403607047A8170020EC
:100E500070B5104C104DAC420ED2FF26236863B122
:100E6000FFF708FE01462046FFF7ECFFA680BFF320
:100E70005F8F0834AC42F1D370BDFFF7FBFD014634
:100E80002046FFF7DFFF2671BFF35F8F0834AC42C7
:100E9000E4D370BD441500204C15002010B5044665
:100EA000FFF7E8FD01462046FFF7CCFFFF23237143
:100EB000BFF35F8F10BD00BF10B504460120FFF7E0
:100EC000E5FD034B03442360BFF35F8F10BD00BFFC
:100ED000A81700200D4B1A68EFF3108172B6D2E804
:100EE000CFCF0120BCF1000FF9D1C2E84C0FBCF10B
:100EF000000FF4D1BFF35F8F00221B68C3E88F2F70
:100F000081F3108840BF002000217047741D00202D
:100F10002DE9F04F2DED028B85B0EFF30583DBB2A9
:100F2000103B9A0818BF01224FF0010103F0030B98
:100F300018BFAF4DAF4B08BFAF4D0BEB820253F85C
:100F4000226001FA0BF205F541539FEDA78B019248
:100F50005A602FE0B3881C0440F19380B379002BD2
:100F600040F0DD80B6F90820002AC0F21E817369C6
:100F700002EB420203EBC203D3E90247B7F1FF3FA2
:100F800008BFB4F1FF3F0ED005EB8B01AB6A0A69D5
:100F9000D21AE31A934205D301232A6A03FA0BF308
:100FA000134200D10C61284600F038FBA042B94141
:100FB000C0F2FB80B6F90830019A002B0093EA6377
:100FC000C8DBD6F8148003EB4309284608EBC907B1
:100FD000D7E9024A00F022FBA04271EB0A01B9DB1B
:100FE000BAF1000FC0F2C380D7E90431834A9342BB
:100FF00000F0ED807A88B6F9080092B242EA00402B
:10100000984702460B4652EA030100F0B080002BDD
:1010100080F2D180B4EB020E6AEB030A38F9393062
:10102000C7E902EA002B95DB716903EB430201EB90
:10103000C202D2E90270BE457AEB000C4FEA4302CD
:1010400088DBB4462CF8083F06E003EB430001EBD5
:10105000C0005A00D0E90270BE451A447AEB000085
:1010600001EBC20404DB31F93230A446002BECDA88
:1010700028F83930009BACF80030B3881C043FF5E9
:101080006DAF3369EFF3108272B6D3E8CF0F012151
:101090000028FAD1C3E8401F0028F6D1BFF35F8FC4
:1010A0004FF6FF74B0880023316900B2B480C1E804
:1010B0008F3F82F310889842FFF650AF0746A9464B
:1010C000746906F1080807EB470E04EBCE03D3E979
:1010D0000250B6F90830C446002B13DBB246009725
:1010E00004E034F936309446002B09DB03EB430669
:1010F00004EBC602D2E90271BD4270EB0101F0DAE5
:101100005646009FACF8007034F93E7024F83E302B
:10111000002FD8DAB3794D46002B3FF423AF0023DC
:10112000B371B6F9083006F10808581C3DD01A46CC
:10113000776903E08046591C3FF416AF03EB430187
:1011400007EBC100B0F802C01C461CF4004F9E46DD
:1011500037F93130EED0944280ED028B05D0A8F8FB
:101160000030328927F8312034817246E3E738F8BD
:10117000393033813369EFF3108272B6D3E8CF0F81
:1011800001210028FAD1C3E8401F0028F6D1BFF39F
:101190005F8F7388316928F83930009B7380002392
:1011A000C1E88F3F82F31088D4E640BF05B0BDECA4
:1011B000028BBDE8F08F2846CDE9022300F02EFA1D
:1011C000029A039B10EB020E43EB010A26E7084646
:1011D0000B69029198470028C9D00299D1E90023F0
:1011E00011E700BFAFF30080FFFFFFFFFFFFFFFF2E
:1011F00000800B404C1D002000000B40110F001020
:101200002DE9F84F364C25692DB1BDE8F84F0A217C
:101210003448FFF717BEDFF8E4800321404600F0B2
:10122000EBF90326C4F80C80FFF724FC4FF0504C78
:101230002D4B267003442361DCF800300F216370CE
:10124000636961801D834FF00405A3F878504FF067
:101250000505A3F890504FF00605A3F8A8504FF0ED
:1012600007050E214FF6FF7208274FF00A0EA3F86C
:10127000C0504FF001094FF00C0C4FF0020B4FF033
:10128000090A0D204FF00B05A3F868111749A28039
:10129000A3F808E1A160A3F848B0A3F8F0A0A3F870
:1012A0002051A3F838C1A3F85001A3F83090A3F857
:1012B0006060A3F8D8701A800D4B3046C8F82070D3
:1012C0000C49DC60FFF73CFC49463046FFF722FC46
:1012D000094B0A211F640348BDE8F84FFFF7B2BD70
:1012E00004150020741D0020A8170020FFFF100027
:1012F0004C1D0020110F001000200B4000000B407F
:101300000146F0B50069EFF3108772B6D0E8CF5F01
:101310000124002DFAD1C0E8454F002DF6D1BFF3CE
:101320005F8FB1F902E04C690EEB4E0CBEF1000F7D
:101330004FEACC05086904EBCC0C3CDB665B4E80C5
:101340000026C0E88F6F87F31088BCF80200CCE954
:1013500002230130C0F30E00012838BF0120059B95
:10136000ACF80200CCF81030069B40EA0E40CCF8F6
:1013700014300B69EFF3108272B6D3E8CFCF012798
:10138000BCF1000FF9D1C3E84C7FBCF1000FF4D1E0
:10139000BFF35F8F8B886353A1F804E00B69C3E848
:1013A0008F6F82F310880122CB68097803F501530F
:1013B0008A405A60F0BD0023C0E88F3F87F3108851
:1013C0004FF0FF30F0BD00BF03464089B0EB214F26
:1013D00037DD58690A1402EB420210B500EBC20077
:1013E0001C69EFF3108C72B6D4E8CFEF0122BEF186
:1013F000000FF9D1C4E84E2FBEF1000FF4D1BFF3B6
:101400005F8F428889B292B28A4207D000221B695C
:10141000C3E88F2F8CF31088002010BD42F40042E7
:1014200042800121002218699971C0E88F2F8CF346
:1014300010881C78DA68084602F50153A14059600B
:1014400010BD0020704700BF2DE9F04182B0064674
:1014500000F0ECF84FF47A7304464FF0FF306FF071
:101460000042E6FB0341A04272EB01033ABF04468F
:1014700015460D46A61F45F1FF37B44275EB07032D
:101480003CBF0026374600F0D1F8301A67EB010167
:10149000012871F1000106DA2046294602B0BDE8B4
:1014A000F04100F0CDB800F0C1F8864267EB0101D1
:1014B00000290ADB0021174B3246009316483B46B1
:1014C0000191FFF71DFF0130E6D04FF0000C134AE9
:1014D0001349536A9F4204D8906AB042DCD29F42BB
:1014E000DAD10B68EFF3108072B6D3E8CF8F5FF0DC
:1014F000010EB8F1000FF8D1C3E848EFB8F1000FC2
:10150000F3D1BFF35F8F0B68C3E88FCF80F31088F0
:1015100020BFDEE7D50E00100415002000000B40B0
:10152000741D00202DE9F04306460D4683B0EFF30D
:101530000584E4B23CB12D4B5A6AAA421CD2002069
:1015400003B0BDE8F0832A4FD7F80C9097F80080DD
:10155000484600F063F808F1040859F828301B1ACF
:10156000301A65EB0101984271F1000110DB20BFD8
:101570001E4B5A6AAA42E2D314BF012400249B6A7C
:10158000B34234BF204644F0010003B0BDE8F0830D
:1015900000F04CF8864265EB0101002914DB154B85
:1015A0003846CDE9003432462B46FFF7A9FE011E2E
:1015B0000ADD0E4B5A6AAA4216D39B6AB34211D374
:1015C0000B48FFF701FFB6E7084B5C6AAC42B6D3A5
:1015D000641B18BF01249B6AB34234BF204644F009
:1015E0000100ADE7AA42EBD120BFE9E700000B40C4
:1015F00004150020D50E001010B4054B054C064A0A
:10160000A04214BF1846581C5DF8044BFFF7C6B93A
:10161000F418002000800B40145800100346416A63
:101620000A46986A596A8A42FAD17047034B596A46
:101630000A46986A596A9142FAD1704700000B40F5
:10164000074A536A9942FCD8994207D1044B02E0F9
:101650005A6A914202D19A6A9042F9D8704700BF03
:1016600000000B4000EB400C4FEA8C0C0CF1804C5E
:101670000CF5803CF0B51646DCF80420051FB2F5E9
:10168000803F38BF4FF48032EDB238BFCCF8042031
:10169000012D2AD94FF40067254C0CF540521760F4
:1016A00054F82020B2B9DCF80020012D82EA46125D
:1016B00002F0E0020CF5805632602AD94FF4006146
:1016C00044F820304FF480330CF500521160CCF810
:1016D0000430F0BD6769B7FBF2FE0EF1010E0EEBB0
:1016E0004E0EBEF1030EFCD2DDE70129D2D1032458
:1016F0000CF540521460DCF80820D207FBD5DCF86A
:1017000000200B4C82EA461202F0E0020CF58056F3
:1017100032600122DCF800504D4005F003053560D1
:1017200002FA01F1DCF808200A42FBD0C6E700BF4C
:10173000F8180020014B53F820007047F8180020DB
:1017400070B4039D04682D0345EA03451B4B002C30
:10175000B3FBF1F3B2FBF3F61FDB194A194B9042CE
:1017600014BF4FF480424FF40042174C1A6003F547
:1017700080531A60A36832EA0303FBD1212200F5EB
:1017800040530433016086601A600268002AFCDA64
:101790000822C5601A6070BC7047036803F03F03FD
:1017A0008B42DAD18368C3F30B03B342D5D1C3684C
:1017B00003F4EE23AB42D0D1EDE700BF001BB7002E
:1017C000008005400020024000000240012300EBA1
:1017D0004000800000F1804000F58410416003600B
:1017E000704700BF0023DB8A002242E800F2520269
:1017F00001D4102118470421184700BF034AD2F82A
:101800002838002BFBD0BFF35F8F704700000E40DD
:101810000021044B044ABFF35F8F43F8041B93423B
:10182000F9D170470C080E402C080E4010B44FF44C
:101830008D704FF42A64064A064B07491460D06045
:1018400019605368002BFCDA5DF8044B704700BF49
:101850000080044000A0044000B0FA00704700BFC0
:1018600008B50148FFF782F83858001038B5054C24
:10187000054DAC4204D254F8043B9847AC42FAD32D
:1018800038BD00BFD05600101057001010B40748E4
:10189000074C084B084A094904601A608B6832EA11
:1018A0000303FBD15DF8044B704700BF00200240EA
:1018B0007F3BEFEF00300240F6FFF30300000240F1
:1018C000044BDB6CB3F5004F03D14FF48022024B85
:1018D000DA64704700001150002011504FF0E022F0
:1018E000044BD2F8881D0B43C2F8883D10EE30043B
:1018F000704700BF030330006FF06041044B054A9E
:1019000019609368DB4333F06043FAD1704700BF3E
:10191000003002400000024010B545F25320FFF7AE
:1019200061FFBDE8104003460420184710B545F29A
:101930005320FFF757FFBDE810400346012018472A
:10194000FFF7BCB81449154B70B55C1AA610442EAD
:10195000324628BF4422124D9200284603F0EAFD89
:10196000B4F5867F13D80F4AC6F1440012D02B1964
:10197000410803EBC101C3E9002208338B42FAD1CD
:10198000C30704D520F00100304445F82020064B61
:101990009D6070BD4320F8E70000001010010010AA
:1019A000000000201101001000ED00E0002370B5E0
:1019B0002B4C82B0C4F88430FFF738FF0122294B4A
:1019C000DA63636C012BFCD10321264A244B11639B
:1019D0009C6B012CFCD10226052521460523224AB9
:1019E00022480096FFF7ACFE21462B46204A2148AC
:1019F0000095FFF7A5FE0022042031461E4BFFF79D
:101A000031FE2146284600221C4BFFF72BFE002208
:101A1000082011461A4BFFF725FE00220920114627
:101A2000174BFFF71FFE002206201146134BFFF74E
:101A300019FE0022114B07201146FFF713FE042068
:101A4000FFF778FE00240F4BA3FB0035AD0CE0B28E
:101A500029460134FFF7BAFE062CF8D102B070BD5A
:101A60000000014000300140002F6859000005408F
:101A7000008C864700800540001BB70080D1F0082D
:101A8000006CDC0283DE1B4386B003B451FC080407
:101A9000CDE9020151FC0904CDE9040151EC0A042D
:101AA000CDE9060103BCF047BDE800504EEC00C490
:101AB000BDE800504EEC01C4BDE800504EEC02C43D
:101AC00000BD000000B5FFF7DFFF02E010FE30F4BC
:101AD000F8D441EC100443EC112400EE010410EEA4
:101AE000010480EE200451EC1004704700B5FFF7AC
:101AF000CBFF02E010FE30F4F8D441EC100443ECCC
:101B0000112400EE010410EE210480EE200451ECBB
:101B10003004704700B5FFF7B7FF02E010FE30F465
:101B2000F8D410B541EC100443EC112451EC04043A
:101B300053EC0524A0FB024C5FF0000EE0FB03CE4B
:101B4000E1FB02CE4CEC20440024E1FB03E444EC36
:101B500030E480EE200451EC5004BDE810407047A2
:101B600000B5FFF791FF02E010FE30F4F8D441EC2D
:101B7000100443EC112451EC2104A0FB01126FEA84
:101B8000820252FB100052FB12F252FB1000A0EB3B
:101B9000D07C53EC04245CFB13F153EC1524A1FB23
:101BA000022001FB030053EC4424A2EB000050FB95
:101BB0001CF24FEA111312EB017043EBE27140EAA1
:101BC000515020EA915020F0070053EC7524A0FBFF
:101BD000023C53EC752400FB03CC01FB02CC53EC1C
:101BE0000424ACEB824C40EA5C70A0F1010041ECB3
:101BF000400480EE200451EC7004704700B5FFF7FC
:101C000043FF02E010FE30F4F8D440EC700400EE24
:101C1000010410EE210480EE200451EC30047047E2
:101C200000B5FFF731FF02E010FE30F4F8D440ECCD
:101C3000600400EE010410EE210480EE200451EC5B
:101C40003004704700B5FFF71FFF02E010FE30F4CC
:101C5000F8D441EC800400EE010410EE010480EEA3
:101C6000400410EE1304704700B5FFF70DFF02E0CB
:101C700010FE30F4F8D441EC800400EE010410EEC4
:101C8000010480EE400410EE3304704700B5FFF706
:101C9000FBFE02E010FE30F4F8D441EC100443ECFB
:101CA000112400EE010410EE3004C0F30070704700
:101CB00000B5FFF7E9FE02E010FE30F4F8D443EC83
:101CC000102441EC110400EE010410EE30F48CBF3E
:101CD00001200020704700BF00B5FFF7D5FE02E0ED
:101CE00010FE30F4F8D443EC102441EC110400EE63
:101CF000010410EE30F42CBF01200020704700BF1B
:101D000000B5FFF7C1FE02E010FE30F4F8D441EC5C
:101D1000100443EC112400EE010410EE30F42CBF4B
:101D200001200020704700BF00B5FFF7ADFE02E0C4
:101D300010FE30F4F8D441EC100443EC112400EE12
:101D4000010410EE30F48CBF01200020704700BF6A
:101D5000000000000000000000000000DB60BE2862
:101D60004A059193F4D5097F70374D7D66A5D83625
:101D700010E4104FAFF224024B1102EB830201F08A
:101D80001F034FF001049C40A4FB0034D568A5FB61
:101D90000456956805FB0466E5FB0356556805FB8C
:101DA0000366704700000000410201D150F000407E
:101DB00050F480007047F0B5012363F3DF50C1F1A8
:101DC00009014FF07E07FFF7D5FFB30F53F1000372
:101DD0009C44B6EB8376B20028BF5242B2F1805FDA
:101DE0000BD20231FFF7C6FF96EA260242F100024B
:101DF000B2F1805F01D2023FF3D50A4CA2FB04246A
:101E0000B4FA84F29440240AA7EB020244EBC250D5
:101E1000C10DD1F17F01F60F00EBC673BDE8F040B4
:101E200073E00000A2DA0FC911F1800FBCD030EAD4
:101E3000CC7248BF0CF1020C20F0004000EE100AFA
:101E40000DA2F2EC032A22EE802A11F1080FB9FE4E
:101E5000422AB0DDA2EE630AA2EE430A10EE103A67
:101E6000FDEEC21AC3F3C752782AA4D3D2F17F0180
:101E700011EE902A944448E083F9223F7A7795B690
:101E80000010C93F07B5C0F3C751FF2925D000F0A6
:101E900032F8BDE80640CEF800000ED2C9438CEA05
:101EA000D17C63EEA02AE1EE032A73EE622A12EEE1
:101EB000900A80EACC70106000BD8CEAD17C21EEE3
:101EC000232AA3EE602A8CEAD37133EEC22A12EEE3
:101ED000100A80EAC170106000BD4102BDE80E40EA
:101EE00001D150F0004050F480001060186070473D
:101EF0005FF0000C01E05FF0010CC0F3C751A1B32B
:101F0000D1F17F0190D920EACC7323F0004000EE9C
:101F1000100AC0F38440203030FA01F1834A51F1B5
:101F20000001B2EC024A02EB810202EBC102D2ECE8
:101F3000032A70EE620A20EEA01A5FEA5C0C61EEE2
:101F4000201A15D221EE041A61EEA41A70EEE10AED
:101F500021EE232AA3EE602A8CEAD37133EEC22A43
:101F600012EE100A80EAC170704700F00040C7E727
:101F700061EEA41A70EEE10A21EE041A63EEA02AC3
:101F8000E1EE032A73EE622A12EE900A80EACC7028
:101F9000704700BFAFF30080C1FEFF3E25AA2A3E76
:101FA000000000000000803F0000000061C9FC3C10
:101FB000CDE07F3F1CBFFC3C7605813DFE7D7F3F31
:101FC0009EEF803D090CBF3D0FE37E3F22C5BE3D25
:101FD000B624FF3D14047E3FE27BFE3D13071F3E07
:101FE00048EB7C3FA0631E3E6D30403E1D817B3F31
:101FF00015103F3EA2AD603ECFDC793F3EE15E3E34
:102000007B0D803EFA08783F96717D3E6E988F3E3C
:1020100065FF753F68B88D3EF4E19F3E939E733F28
:10202000FD4B9D3EC654B03EAEF7703FB3DDAC3EB7
:10203000C589BF3E604B6E3F0A1ABB3E26C4CF3EE9
:10204000CA356B3F631CCA3EF254E03E66D1673F1F
:102050000739D93EDDF0EF3E4B66643F1641E73E5F
:10206000312B003F8894603F0FC3F53E07E4073FE4
:10207000A2C55C3F2B99013FC51F103F8F7D583F84
:1020800065A1083F8AF6173FB534543FCA310F3F68
:10209000E2FF1F3F599B4F3FD7C8153F4606283FD9
:1020A0006BCF4A3FC4371C3F4130303FE0B9453F1A
:1020B000E49A223FA71D383FCA98403F20A6283FF8
:1020C0002FC73F3FAC763B3F4A562E3FDB13483F7E
:1020D000CCB6353F6B52343F79C74F3F2F35303F39
:1020E000D0B4393F52DD573F70412A3F912D3F3FD9
:1020F00026CE5F3F9F3E243FC35D443FF125683FAE
:1021000050C21D3F1C9D493FE13B703F4150173F6E
:10211000BF7E4E3F7810783F71ED103FAF06533FC2
:10212000D4F47F3FA75A0A3F9B64573F981F001083
:10213000704700BF2DE9F04F83B09946DDE90DAB44
:102140000F9B884611469A07074616D1DA453AD2C0
:102150000C460D46ABEB0A060E4422464B46414662
:1021600020200134B847B442F7D12946BAF1000F14
:1021700008D1204603B0BDE8F08F0C46BAF1000F3D
:1021800010D00E4655460C9B2E449A440191721B6A
:102190004B46013D41461AF8010D3446B847002D23
:1021A000F5D101990F9B9B07E3D5651AAB45E0D9A3
:1021B00022464B46414620200135B8475D4504F193
:1021C0000104F5D3D5E70C46BAF1000FD9D1D0E719
:1021D0002DE9F04F0F9FDDF8248017F0020F0A9CC5
:1021E0009DF82CA00E9DDDE90C9644D1F5BBB442C0
:1021F00041D207F0010B04F1FF3C4FF0300EC44414
:1022000004E00134A6420CF801EF01D9202CF8D1EA
:10221000BBF1000F00F08880A5422CD904F1FF3CEF
:102220004FF0300EC44404E00134AC420CF801EF2E
:1022300021D0202CF8D117F0100F0ED017F4806F9A
:1022400054D1A64263D0A54261D0B9F1100F50D04D
:10225000B9F1020F56D0202C29D12024CDE90B57FB
:10226000CDE90984BDE8F04FFFF764BF17F0010B1B
:1022700034D1B442BFD317F0100F1ED017F4806FC3
:10228000E3D1002CDDD1B9F1100F63D0B9F1020F09
:1022900077D0302488F800400124BAF1000F11D122
:1022A0007E0748D52B2608F804600134D6E7264679
:1022B00001344FF0300C08F806C0202CCDD0BAF114
:1022C000000FEDD02D2608F804600134CDE90B573E
:1022D000CDE90984BDE8F04FFFF72CBFBAF1000F3C
:1022E00030D0B44205F1FF3585D395E7B9F1100F31
:1022F000B3D1BE063BD5202CAFD0582608F80460D9
:102300000134A8E7202CA8D02646013407E0661E39
:10231000B9D0B9F1100F36D0B9F1020FC9D14FF0D1
:10232000620C08F806C096E717F0100FC5D017F436
:10233000806F86D089E73E0790D5202608F8046094
:1023400001348BE717F00C0F00D0013DB442FFF4CD
:1023500052AF61E7BC0612D4782488F800403024DC
:1023600088F801400224BAF1000F99D0AAE7202C86
:102370003FF473AF782608F8046001346BE7582403
:10238000EBE76224E9E717F0200FA4F1020C04D078
:102390004FF0580E08F80CE08BE74FF0780E08F875
:1023A0000CE086E700B9704701F058BB10B1D1E9E5
:1023B00000311847704700BF2DE9F04F97B09DEDF1
:1023C000207BDDE9225B0746884651EC170B249CF5
:1023D00099460C920B4602468DED047B0794FFF75D
:1023E00059FC002840F0F481DDE904014FF0FF3290
:1023F0006FF48013FFF760FC002840F01B81DDE9DB
:1024000004014FF0FF32AC4BFFF792FC002840F084
:10241000EE80DDE90401A4A3D3E90023FFF788FCE3
:10242000002840F0D380DDE90401A1A3D3E9002313
:10243000FFF742FC002840F0C980DDE904010022DA
:102440000023FFF739FC002840F0E88023460D9078
:1024500013F4806F08BF062530212B460EAAA5F184
:10246000200605E0013BB34202F8011B00F0938116
:10247000092BF7D81E46ED1ADDE90401FFF7E6FB4C
:102480008E4B044603EBC60393ED007B8DED087B7A
:10249000FFF7B8FB02460B46DDE90401FFF72AFB14
:1024A000DDE90823FFF73AFB02460B46CDE90A2394
:1024B000FFF7DEFB8246FFF7B7FB02460B46DDE97E
:1024C0000A01FFF717FB02460B46CDE90A2300225B
:1024D0007B4BFFF72DFC002800F0FE800AF1010A7B
:1024E0005046FFF7A1FB02460B46DDE90801FFF766
:1024F000F7FB10B14FF0000A0134002E00F0FD8010
:10250000681E0EABDFF8CCC118440FE0ACFB0A210B
:10251000C90801EB8102AAEB42023032BAF1090F7D
:1025200000F8012F40F21C818A461D46202D05F13E
:10253000010306F1FF36E9D12025691E0EAB614883
:10254000194410E080FB0462C3EBA20303EB830297
:10255000A4EB420404F1300201351C4601F8012FBE
:10256000002B00F0EB80202D4FEAE473EAD1079BAB
:1025700003F00303012B18D1BBF1000F15D00D9B05
:10258000002B00F00A810BF1FF3BBBF1200F0CD9AF
:102590006B1E0EA930220B4405E001355D4503F8A2
:1025A000012F80F0D180202DF7D1079B0EACCDE913
:1025B00002B341464B4638460C9A01950094FFF70A
:1025C000B9FD8246504617B0BDE8F08F079B9DEDE0
:1025D000047BCDE923B341464B4638460C9A8DED3A
:1025E000207B229517B0BDE8F04F00F045B9610798
:1025F00023464CBF042303234146219338464B46D0
:10260000079A48BF304CCDE922B258BF2F4C0C9AE4
:10261000209417B0BDE8F04FFFF78CBDDDE904232F
:1026200000200021FFF766FA0123CDE904010D9394
:1026300023460DE723469C0740F0AA80BBF1040F18
:1026400040F2A6800C9B1D461C1F04EB0B0A2A4679
:102650004B46414620200135B847AA45F7D155469B
:102660001B4C261F14F8010D2A464B464146B8471D
:10267000B44205F10105F5D1079B0AF1040A980758
:10268000A0D50C9CAAEB04039B459BD952464B4614
:10269000414620200AF1010AB847AAEB04035B4532
:1026A000F4D38FE7AFF300800000000065CDCD418B
:1026B0000000000065CDCDC1FFFFEF7F805A001004
:1026C0000000E03F6766666680580010885800107A
:1026D00094580010CDCCCCCC0022DDE90A01634B2C
:1026E000FFF7EAFA00287FF408AFBAF1000F6AD1C9
:1026F0000AF1010A002E7FF403AF2046FFF782FAA9
:1027000002460B46DDE90401FFF7F4F902460B46E9
:10271000CDE904230022554BFFF7CEFA00287FF4C1
:102720000CAFDDE904010022504BFFF701FB00284C
:102730007FF403AF013424F00104FEE6079B03F0AD
:102740000303012B00F08280202D3FF42EAF0D9B60
:102750007BB32D220DEB050383F83820013524E7E8
:10276000202B3FF4E9AE0EAA15441E44302204E0AB
:10277000202B05F8012F3FF4DFAE9E4203F1010349
:10278000F6D12E220DEB060383F83820751CD4E613
:10279000DDF830A063E720256EE6079B13F00C0FF1
:1027A00050D00BF1FF3BAB453FF6F2AE202D3FF48E
:1027B000FCAE079B5A0701D52B22CBE71B077FF501
:1027C000F4AE2022C6E71AF0010F3FF496AE8FE771
:1027D000A60734D1BBF1030F31D90C9B1D46DC1E7B
:1027E00004EB0B0A2A464B46414620200135B847E8
:1027F0005545F7D155461E4CE61E14F8010D2A46E4
:102800004B464146B847A64205F10105F5D1079B65
:102810000AF1030A9D077FF5D5AE0C9CAAEB0403D1
:102820009B457FF6CFAE52464B46414620200AF1EB
:10283000010AB847AAEB04039B45F4D8C2E6DDF8C9
:1028400030A0D7E7AB453FF6A3AEAEE6BBF1000F35
:102850003FF47AAF0D9B002B9FD00BF1FF3B5D4502
:10286000FFF496AE202D7FF474AF9EE60000E03FAB
:102870008F580010000000002DE9F04F9FB02A9EF5
:10288000DDE92845074693460891099322462B46E1
:10289000204629460E96DDE92BA6FFF7FBF9002816
:1028A00040F0BE80204629464FF0FF32784BFFF7BC
:1028B0003FFA002840F0B480204629464FF0FF320E
:1028C0006FF48013FFF7F8F9002840F0A980204644
:1028D000294600220023FFF7EFF9002840F0D581B8
:1028E000CDE90A45DDE90A239046994606F40062DF
:1028F00016F480630F92139340F0A18058EA090305
:1029000040F0CA80002A40F0E38106230E9316F0BF
:102910000202109240F0D4815346042B38BF0423A6
:102920000C920422043B12920F9320462946002267
:102930000023FFF7C1F9002840F0F3819DED0A7BE9
:102940000F9B5A4603930E9B8DED007B029326F45A
:10295000006304933846099B0899FFF72DFD024652
:1029600016F0200F099B08990CBF6520452002F145
:102970000108B8470C9A129B16AC5D1E82EAE273FE
:10298000A3EBE273D10F002622469946DFF804C17B
:1029900001E0202E10D0CE46ACFB0930C00800EB81
:1029A0008003A9EB43033033BEF1090F814606F1E2
:1029B000010602F8013BECD80523002006930A2308
:1029C00005950094099D089C4246CDE90330CDE968
:1029D00001612B4621463846FFF7FAFB109A8046E4
:1029E000D2B1A0EB0B06B24516D90BEB06022B4673
:1029F000214620200136B847B245F6D80BF1FF3307
:102A00005344CBF10102A3EB08034244924538BF83
:102A1000002308F10108984440461FB0BDE8F08F3C
:102A20005A463846CDE92845CDE92BA60E9C099B90
:102A300008992A941FB0BDE8F04FFFF7BDBC58EAD3
:102A400009032BD1002A3FF462AF00230C930E9BA5
:102A50000C9A934200F3B9814FF0000820462946B2
:102A600000220023FFF728F9002840F013819DED94
:102A70000A7B26F4006646F480668DED287B5A4674
:102A80003846CDE92A8A099B08992C96D2E700BFDF
:102A9000FFFFEF7FCDCCCCCC06230E93C9F30A50B9
:102AA000A0F2FF30FFF7AEF8C1A3D3E90023FFF790
:102AB00035F8C1A3D3E90023FFF708F8C9F31309D8
:102AC000CDE90C0149F07F5140460022B24B41F460
:102AD0004011FFF70FF8A4A3D3E90023FFF71EF876
:102AE00002460B46DDE90C01FEF7F0FFFFF7AEF8FA
:102AF0000C90FFF787F89EA3D3E900238046894610
:102B0000FFF70CF80022A54BFEF7E0FFFFF79EF859
:102B1000034649464046129397A3D3E90023FEF7A4
:102B2000FDFF804612988946FFF76CF894A3D3E91D
:102B30000023FEF7F3FF02460B4640464946FEF7E8
:102B4000D9FF02460B4680468946FEF7E7FF42461C
:102B50004B46CDE9100140464946FEF7B7FF00223B
:102B6000CDE91401DDE910018D4BFEF7FDFF0022D8
:102B70008C4BFEF7ABFF02460B46DDE91001FEF77A
:102B8000F3FF0022884BFEF7A1FF02460B46DDE96A
:102B90001001FEF7E9FF42464B4680468946002079
:102BA0004FF08041FEF7A6FF02460B4640464946DD
:102BB000FEF78CFF02460B46DDE91401FEF7D4FF59
:102BC00000227A4BFEF782FF129B002203F2FF3CA9
:102BD0004FEA0C53FEF7A2FF80468946DDE90A0161
:102BE00042464B46FFF768F850B10C9B4046013B0C
:102BF00049460C9300226B4BFEF7B6FF8046894690
:102C00000C9A43466332C62A06F0020210924946E5
:102C10000F9A2CD8002A5ED0042212920B433FF464
:102C200016AFDDE90A0158A3D3E90023FFF76CF8DA
:102C300048B1DDE90A0156A3D3E90023FFF73CF8C8
:102C400000287FF404AF0E9B002B50D0139A002A6B
:102C50007DD0013B0E93129B9A4505D9109B002B0A
:102C600000F0AE800223109300230F9344E022BBB8
:102C7000BAF1050F4FD906F00203002B49D1052305
:102C80001293AAF105030F933AE005F100430A9469
:102C90000B9327E626F4006646F4806638462C96A9
:102CA000DDE90A67344607F100455A46CDE92A8A2C
:102CB000CDE92845099B0899BCE605221292ADE7AB
:102CC00000230222CDE90F3204220C9312922CE64B
:102CD0004FF00508C2E6BAF1040F1FD9109B002B74
:102CE00078D104231293AAF104030F9304E0129BFA
:102CF0009A4531D80E9B0F930C9B002B3FF415AED9
:102D0000DDE90A0142464B46FEF72EFFCDE90A01F6
:102D10000BE60223109305231293F1E70423129389
:102D2000EAE7DDE90A45A0460F9B05F10049039358
:102D30000E9B5A46029326F4006304933846CDE96D
:102D40000089099B0899FFF737FB024608E6129BAA
:102D50009A4544D80F92CFE7109B8BB30E9B0F93ED
:102D600002231093C8E700BF61436F63A787D23F78
:102D700071A379094F930A401655B5BBB16B024058
:102D8000EF39FAFE422EE63F2D431CEBE2361A3FA6
:102D90000000000080842E410000F83F0000E03F6A
:102DA00000002C4000002440000018400000F03FCC
:102DB000FB799F501344D33FB3C8608B288AC63F2A
:102DC000129BAAEB03030F9396E7A3EB020808F10B
:102DD000FF3843E604231293022310938CE7109BE1
:102DE000002BEDD002230F92109385E72DE9F04FD1
:102DF0009BB0249C954D0A94954CB1F1000A18BFE4
:102E0000834625601878934C914608BFA3460993E2
:102E1000002800F093824FF000080AE042464B463B
:102E2000514608F10108D847099B1878002800F09E
:102E3000CE80099B252803F101030993EED11C469E
:102E40000023224612F8010BA0F1200110290AD814
:102E5000DFE801F04009093C0909090909090938B5
:102E6000093409093000A0F130010929099440F220
:102E70008A802A2800F0F08000252E2800F0968015
:102E80000026A0F1680112292DD8DFE811F04901D0
:102E90002C0043012C0038012C002C002C002C00AD
:102EA0002C002C002C0027002C002C002C002C00C7
:102EB0002C002700144643F00103C2E7144643F0F8
:102EC0000203BEE7144643F00403BAE7144643F096
:102ED0001003B6E7144643F00803B2E709994878AF
:102EE00043F480730132672809927ED8242840F287
:102EF000C180A0F12502422A00F2BC80DFE812F076
:102F00005001BA00BA00BA00BA00BA00BA00BA005A
:102F1000BA00BA00BA00BA00BA00BA00BA00BA00E1
:102F2000BA00BA00BA00BA00BA00BA00BA00BA00D1
:102F3000BA00BA00BA00BA00BA00BA00BA00BA00C1
:102F4000190137011901BA00BA00BA00BA00BA0073
:102F5000BA00BA00BA00BA00BA00BA00BA00BA00A1
:102F6000BA00BA00BA00BC01BA00BA00BA00BA008E
:102F7000BA00BA00BA00BA00BA00BC015801BC01DC
:102F8000190137011901002500E0013205EB850523
:102F900000EB45051078303DA0F130010929F4D946
:102FA0002E28099202F101027FF46AAF099943F4D5
:102FB000806348781146A0F13006092E40F2218145
:102FC0002A2800F02F8109920026013259E7444651
:102FD000C14501D809F1FF384B4642465146002011
:102FE000D84720461BB0BDE8F08FA0F16902D2B2ED
:102FF0000F2A3FD8012149F241079140394040F062
:10300000F3800A2A3DD0072A34D10A9D55F8042BB3
:10301000002A00F0138143F0210012AB1F460B93EE
:1030200003E0202900F014811A4602F00F04234621
:10303000092C94BF303337330F2A07F8013B01F1D5
:1030400001014FEA1213ECD802E100BFED2D001090
:103050002C1D0020312100100A99099851F8045BB9
:103060004078002DCDE90921BCBF43F002036D4239
:10307000013202E742464B46514608F10108D84763
:10308000D2E60A99002E51F8047B18BF32463878F0
:1030900008BF4FF0FF32002800F07B83BC18A44625
:1030A0003A4604E012F8014F002C00F03F819445AD
:1030B000F8D16446E41B5A0540F12281B44228BF8E
:1030C000344613F0020300F088820223CDE90A514E
:1030D00042461D46464408E04B465146D84717F83D
:1030E000010F08F1010810B142464645F4D12B46C4
:1030F0000B990A9D002B40F041810A9194E60999B1
:1031000048786C287FF4ECAE0A46887843F4407324
:103110000332E8E6099943F4007348780132E2E6A5
:1031200009994878682800F0038143F08003013250
:10313000D9E6672800F0D980472800F0DC804528D0
:1031400000F0DB80CDE903530A9B0296073323F09E
:1031500007031C464246F4E802674B465146584670
:10316000CDE900670A94FFF787FB80465CE64628B6
:1031700008BF43F02003CDE903530A9B02960733AF
:1031800023F007031C464246F4E802674B465146CB
:103190005846CDE900670A94FFF70EF9804643E6EA
:1031A00042464B465146252008F10108D8473BE6E8
:1031B0000A9A990702F1040408F1010640F1C68059
:1031C00010784B4642465146D847012D88BFA84447
:1031D00040F2BD8132464B46514620200136D84749
:1031E0004645F7D10A941FE66F2800F0818040F22F
:1031F0004882782800F090810A2723F01003BC460B
:1032000041E0002606EB860600EB4600A0F1300602
:1032100011F8010FA0F13002092AF3D90A460991E9
:1032200001322EE6DDE9092151F8046B9078023273
:1032300009920A91013226EAE67622E623F010008E
:1032400013F4806240F021003FF4E7AE12AB0B9321
:103250000B9B069000930823102005930023424601
:10326000CDE9023001914B46514658460496FEF78F
:10327000AFFF0A958046D7E5582862D0622840F013
:103280008F800227BC4613F4806000F0DD8023F0BD
:103290000D0313F4007240F081810A990F1D13F49D
:1032A000807140F037825C060A9A40F13B811278C7
:1032B000002A40F04E8123F01003002800F04981DD
:1032C000114612AA0B92CDE90553CDE903C601912F
:1032D0000B9B4246009300235146029358464B46AF
:1032E000FEF776FF0A9780469EE543F4006329E7E0
:1032F0000827BC46C7E743F4006343F0200321E7F7
:1033000013F0020300F08E8102230A951E460D463B
:1033100042464B465146D84717F8010F08F10108BD
:103320000028F5D1294633460A9DE3E6D41BC2E6C0
:103330000A46887843F0C0030332D4E50446804649
:1033400046E6102743F02003BC469CE7012D40F2DF
:10335000F880464608F1FF372F4432464B46514627
:1033600020200136D847BE42F7D10A9B3246187852
:1033700051464B46D847A8440A9455E54646A542CF
:103380007FF6BBAEA844A8EB04080C4632464B4679
:10339000514620200136D8474645F7D12146ACE6B4
:1033A00013F4806200F0BB804FF4806223F0110CB4
:1033B0001CF400770A9B4AD11CF4807003F10404CA
:1033C00040F034811CF0400F40F0A3801CF0800FCF
:1033D00000F0D381B3F9001081EAE177A7EBE17740
:1033E000BFB2CB0F002900F056813A4612A90F4612
:1033F000DFF8D8E30B910A930C9501E020280FD059
:103400001546AEFB0213DB0803EB8301A2EB41017F
:103410003031092D1A4600F1010007F8011BEDD8E3
:103420000A9B0C9DCDE9055CCDE9010304960B9B3D
:10343000424600930A235146039358464B46FEF7F3
:10344000C7FE0A948046EFE423F00C0321E707331C
:1034500023F00703194608465B6850F8081BDF0F86
:103460000A9051EA030062D1002A40F09F8113467E
:10347000114612AACDE90C7500201546CDE90E685B
:10348000DFF848E30B9201E020282DD05A1842F1D2
:103490000002AEFB027828F0030707EB9807D21B67
:1034A0001E469B1A61F100070C464FF0CC3101FB20
:1034B00003F10EFB0711A3FB0E731944052307F05C
:1034C0000108A8FB03389B180A2E03F130034FEACA
:1034D000570774F1000405F8013B00F1010047EAC9
:1034E000C1734FEA5101CFD2DDE90C75DDE90E68F9
:1034F0000B9B424600930A23CDE9055CCDE9010709
:10350000049603934B4651465846FEF761FE8046AB
:103510008AE419780F4664E71027BC46B3E623F027
:10352000100C45E71C064CBF12881268C0E60A461C
:10353000191E01DB13469CE75242134661EB410121
:1035400097E713465146187842464B46D847B0464F
:1035500048E613F0200F14BF4120612012ACA646AC
:103560000B940A93A0F10A040C9502E0202912D0D2
:103570002A46B2FBFCF50CFB1520C3B2092803F167
:1035800030008ABF1B19C3B2DBB262450EF8013BA3
:1035900001F10101EAD20A9B0C9D94E60A9A0732D6
:1035A00022F00702516852F8084B8E460A9254EAFC
:1035B000010276D123F01003002872D000221146B8
:1035C00012AA0B92CDE905530B9B424600930023B0
:1035D000CDE903C60191029394E7A54298BF013457
:1035E0007FF674AD4FF48063CDE90A7505EB0802F0
:1035F0001F460D46141B42464B465146202008F1FB
:103600000108D847A045F6D13B460A9F294638789D
:103610000B9D6C1C00283FF470AD002B3FF475AE81
:10362000002353E5A542DFD801346EE61968CB0FBD
:10363000002900F0A88081EAE172A2EBE17212A9F0
:103640000846DFF888E10B910A930C9501E0202FE2
:103650000FD01546AEFB0213DB0803EB8301A2EB90
:1036600041013031092D1A4607F1010700F8011B0D
:10367000EDD80A9B0C9DCDE9055CCDE9017304965C
:10368000D5E6692823F0100C40F08C8013F480629A
:103690003FF48EAE88E6002A3FF4A8AE12AA0B9241
:1036A000C0E613F0200F14BF41226122002012A9AE
:1036B0000A3ACDE90E68CDE90C35CDF844B006469E
:1036C0008846754693460B91CDF840C003E0202E06
:1036D00017D004460D4629463A460023204601F0FD
:1036E000DFFFD2B2092A02F1300388BF02EB0B03DD
:1036F000BC42DBB275F1000508F8013B06F101069A
:10370000E5D23146DDE90C35DDE910CBDDF83C8052
:103710000E9E57E70A99096851B923F0100338B192
:1037200012A90B91CDE90553CDE903C60192CFE56E
:1037300013F0200F14BF4120612012ACA6460B9459
:103740000A93A0F10A040C9502E0202A12D029461F
:10375000B1FBFCF50CFB1510C3B2092803F13000D6
:103760008ABF1B19C3B2DBB261450EF8013B02F1FF
:103770000102EAD20A9B0C9DD4E7196881EAE1773D
:10378000A7EBE1772DE6002A3FF459AF12AA0B927E
:1037900071E713F480640DD013F0020412D00446D4
:1037A0004646ECE50A276346BC466CE512AB0020B2
:1037B0000B939DE613F002037FF4E0AD002D7FF440
:1037C00013AF9AE4002D7FF40DAF96E4CDCCCCCCB2
:1037D00070B594461E4605460C4684B04FF0FF3245
:1037E000634602A900960348CDE90254FFF7FEFAAA
:1037F00004B070BDAD23001010B5094B84B01C6837
:103800004CB1034600914FF0FF3203A90548A04791
:10381000012004B010BD00F063F9204604B010BDD3
:103820002C1D0020A523001000BEFDE708B5FFF702
:10383000FBFF00BF38B5064C064DFEF717F8AC424B
:1038400004D254F8043B9847AC42FAD338BD00BFC9
:103850001057001018570010036808461146184703
:103860002DE9F0411546427D07468846002A46D09C
:10387000002D1DDD0B780A2B23D0012D4FF0000CFD
:1038800018D04646012416F8012F21460A2A04F1D1
:10389000010422D0A542F6D165450BDC08EB0503F7
:1038A00013F8013CA3F10D03B3FA83F35B093B75F5
:1038B000BDE8F0813B68A5EB0C0108EB0C009847D4
:1038C000ECE7037D002BD8D1036802210F4898470D
:1038D000012DE3D04FF0010CD3E716F8013C0D2B7E
:1038E000D8D08C4508EB0C00A1EB0C0101DA3B6849
:1038F0009847022105483B689847A446CAE72946ED
:1039000040463B68BDE8F041184700BFD05A001060
:103910000B682DE9F041802B0D46064605D05A1C58
:103920002B442A601E71BDE8F0810F4B1C68A4B1C6
:103930000E4F01F1040801E0246974B12368002BE3
:10394000FAD03B680BB1A342F6D1204641462A6823
:10395000FFF786FF2469002CF0D1002301222B44BD
:103960002A601E71BDE8F08120190020281900206E
:103970002DE9F04782B00D4691461C460646FDF7FC
:1039800055FE4FF0FF3C6FF000472E4A821841F180
:103990000003944577EB03013CBF62463B462A484F
:1039A00001F08EFE6B1C804640D00CB3274F284B95
:1039B0001C68B4B1B9F1000F1CD1DFF89C9001E094
:1039C000246974B12368002BFAD0D9F800300BB108
:1039D0009C42F5D120462A463146B8472469002C3E
:1039E000F0D1B8F1000F26D1284602B0BDE8F0872B
:1039F000184FDCE74FF00A0ADFF85C9002E0246918
:103A0000002CEED02368002BF9D0D9F800300BB190
:103A1000A342F4D12A4631462046B8470122204627
:103A20000DF107018DF807A0B847E8E7304601F02F
:103A3000F7FD0546B9E7044801F036FE284602B016
:103A4000BDE8F08740420F004415002061380010A7
:103A5000201900205938001028190020F0B583B033
:103A600006468DF80700FDF7E1FD4FF0FF356FF0DA
:103A70000044174A821841F10003954274EB030198
:103A80003CBF23462A46134801F01AFE124B074654
:103A90001C689CB1114D01E024697CB12368002BA6
:103AA000FAD02B680BB19C42F6D1204601220DF1D1
:103AB0000701FFF7D5FE2469002CEFD117B9304676
:103AC00003B0F0BD034801F0EFFD304603B0F0BD98
:103AD00040420F0044150020201900202819002022
:103AE00038B5044601F09CFD012305461A462046E0
:103AF0002946FFF73DFF084B1C682CB163682BB1CA
:103B000098472469002CF9D1284638BD2469002C37
:103B1000F4D1284638BD00BF201900202DE9F0411E
:103B2000A2B004460D46FDF781FD4FF0FF376FF060
:103B30000046264ADFF8A480821841F1000397422C
:103B400076EB03013CBF3A463346214801F0B8FD0D
:103B500000272B462246064601A91E480197FFF77B
:103B600037FE019B0546D8F80040C3B1002C2BD08E
:103B7000194F01E0246974B12368002BFAD03B6827
:103B80000BB1A342F6D12046019A02A9FFF768FEC5
:103B90002469002CF0D10023D8F8004001932CB107
:103BA000636843B198472469002CF9D12EB928469F
:103BB00022B0BDE8F0812469F1E7054801F074FD09
:103BC000284622B0BDE8F0810194EFE740420F00A3
:103BD0004415002011390010281900202019002058
:103BE0000FB400B583B004A951F8040B0191FFF79D
:103BF00095FF03B05DF804EB04B0704700B545F2E3
:103C000047308BB0FDF7EEFD01220346092101A8E4
:103C10009847DDE90332044912BA1BBAC1E900230F
:103C20000BB05DF804FB00BF6C1D00200346024A88
:103C300003CA1860596070476C1D002070B500F011
:103C400039F90C234026194CFF22A3670E2018498E
:103C5000FCF7A6FF32460021164801F01DFC0125A5
:103C6000002380211348144A418445700683068747
:103C700082604360136042F8043C80F8213080F891
:103C80003B3043620D4B4FF00056C360C362803B34
:103C9000836201F0F5FC4FF480320949094B256439
:103CA0002846E664C4F89010DA6470BD0000115034
:103CB0004D0300202C1900208400105000011050EA
:103CC00010D001000020115001210E20FCF722BF6E
:103CD00000220248114600F00DB900BF4C19002027
:103CE0004FF400314FF48052024BC3F89010DA6465
:103CF000704700BF00201150044B197021B14FF4E0
:103D00000032034BC3F89020704700BF811D002094
:103D1000002011500B785B0602D14B78052B00D0A8
:103D200070474B88014ADBB21360704700001150A6
:103D3000CB782DE9F04103F0030EBEF1010FC3F380
:103D400001005BD0002791F802C0344C0CF07F02D8
:103D50005600898806EBDC1304EB43134FEADC15AD
:103D6000D876C1F30A0185F0010083F802C01983F7
:103D70005870DF70D3008DBB2948043304EB821CDC
:103D800003EB0008CCF808801F5082B3254BD2000B
:103D90001344CCF80430244B3F311A6821F03F0122
:103DA000BEF1020F08BF4900114419601F4B77197B
:103DB00004EB47179942FA602BD82E4404EB4613C4
:103DC000D97E82F0A04282F480125B6842EA81626E
:103DD00042F000421A600120BDE8F081104804EB77
:103DE000821C0344CCF8283040F832704AB90022D3
:103DF0000F4904EB4513D9605A60ECE70020BDE899
:103E0000F081D20002F1A04202F58012CCF8242009
:103E1000C1E7FDF725FDFA68CFE700BF2C190020A8
:103E20008000105004001050301D0020FF0F105073
:103E30000001105001F024BC8C4608B5114607481B
:103E40001A460CF07F034FEADC1C0CEB430C00EB32
:103E50004C1000F04FF8012008BD00BF2C190020C5
:103E600011F07F0205D100290CBF02200120064B72
:103E70009866C909054B01EB420003EB40104FF473
:103E80000062002101F018BC002011502C19002004
:103E900011F07F0300D17047002205485B0003EB5F
:103EA000D11300EB43106FF40061C27001F004BC49
:103EB0002C1900204FF0805209480A4908B50A4BD6
:103EC00002600A609968C94311F08051FAD14FF439
:103ED0008052064801F0E0FA0922054B5A6708BDF6
:103EE000002002400030024000000240000010505C
:103EF0000000115000234FF0010C10B580F81AC0DB
:103F00008282C3820161044601F0DEFB20B14FF4DE
:103F10000032074BC3F89020204601F0C9FB10B1D6
:103F20000123237710BD2046BDE8104001F0B0BB4F
:103F300000201150002070472DE9F0414FF000089B
:103F40001C4D044642462B781B4F1C4E0DE0336837
:103F500013EB421324D0DB682046984708F1010890
:103F60002B785FFA88F2934206D39342A2EB0303C5
:103F7000EDD807EB4313EEE754220021104801F07F
:103F80008BFA4FF0FF330E482022041D4360C4E932
:103F90000133E360FF21BDE8F041143001F07CBA49
:103FA0004FF0E023D3F8F03DDB0700D500BEBDE8BD
:103FB000F08100BF801D0020D45A0010D0160020D0
:103FC000D0170020704700BF704700BF0020704727
:103FD0000020704700207047024B5878003818BF07
:103FE00001207047D0170020024B1878C0F38000E2
:103FF000704700BFD01700200A4A10B51378C3F3EA
:1040000080045B0705D5137803F01803182B02D042
:104010000024204610BD044B1878FFF761FE2046AF
:1040200010BD00BFD0170020381500202DE9F04743
:10403000DFF8E49099F80030FF2B55D10D460029A8
:104040003DD0002154220646294801F025FA0022DD
:10405000284C294B20461A70FCF720FF274B284894
:104060001C60284CFCF728FF204601F0D5F8264AB2
:10407000264B146023B12648AFF30080254B18600F
:104080004FF0000A224C53462278DFF89080214FEF
:104090000DE03A6812EB431311D05B687BB198478F
:1040A0000AF1010A22785FFA8AF3934211D8934207
:1040B000EFD39B1A08EB43135B68002BEFD14FF053
:1040C000E023D3F8F03DDB0700D500BE0020BDE8BB
:1040D000F0872946304689F80060FFF7AFFD0028D9
:1040E000EDD03046FFF7F0FD0120BDE8F08700BFBE
:1040F000D0170020C8170020821D0020241800209F
:10410000301500201C150020281800200000000099
:10411000801D0020D016002038150020D45A001031
:104120002DE9F04FDFF8ACA28BB09AF80030FF2BEE
:1041300000F0E880A04CA14DDFF894B2A04E2768B3
:104140007B69EFF3108272B6D3E8CF0F012100280C
:10415000FAD1C3E8401F0028F6D1BFF35F8FBA61E0
:10416000384607A900F0BCFF00237A69C2E88F3FF8
:10417000BB6983F31088002800F0C4809DF81D30CF
:10418000013B072B00F26A83DFE803F0A1AB8F97B6
:1041900088350A04089B002BD1D009989847CEE7B0
:1041A0009DF8201001F07F0705EB470000EBD110D0
:1041B00090F8343023F0010380F8343090F8343034
:1041C00023F0040380F83430002F00F09E80027D3D
:1041D0009BF800309A4280F08D807A4B1B6813EB7D
:1041E000421300F088809F699DF82120099B9DF86B
:1041F0001C00B847A3E73378002B7CD03378013B11
:10420000DBB23370337803F0FF00002B97D16B4F94
:104210009DF81C903B7843F001033B7097F83430D5
:1042200060F3000387F8343097F8343060F382038A
:1042300087F8343097F8353060F3000387F835306D
:1042400097F8353060F3820387F8353000F036FC9C
:104250009DF8203003F06002602A66D0402A76D0B4
:1042600003F01F03012B00F0B780022B7BD0002B43
:104270005BD1202A00F0DE81002A56D19DF8213042
:10428000092B52D8DFE813F0A50197015100B601C0
:1042900051008A015F0151005401E7002B78D907D2
:1042A0007FF54DAFFBF7DCFF49E7EB78DA077FF5E9
:1042B00046AF0898FFF788FE41E72B78D8077FF5CF
:1042C0003EAF2878C0F3C000FBF7C2FF37E79DF888
:1042D0001C00FFF731FE00F0E7FB9DF82030AB70CB
:1042E0002DE79DF81C00FFF727FE00F0DDFBFBF734
:1042F000A9FF24E711D04FF0E023D3F8F03DDC070D
:1043000000D500BE0BB0BDE8F08F099B9DF82120C1
:104310009DF81C0000F0E6FB11E72B4B63E7FCF770
:1043200045FA0246002840F07C814FF0E023D3F8A4
:10433000F03DDF0700D500BE9DF81C000021FFF70F
:104340008FFD80219DF81C00FFF78AFDF7E61F48CE
:1043500000F0B4FB0121484608AAFFF7EBFD002856
:104360007FF4EDAEE8E79DF8241011F0700FDCD17A
:10437000174B01F07F08187807EB480303EBD113C4
:1043800093F814C04FEA480884454FEAD11350D33C
:1043900040F06D810C480190002A00F06C81019F73
:1043A000786900F08BFB012148467B6908AA984791
:1043B00000287FF4C4AEBFE728180020D0170020E3
:1043C000821D0020D0160020D45A0010353F001066
:1043D000801D0020381500209DF824300F2BABD80D
:1043E000B04A3B441B79127893422ED3A4D1AE4FEE
:1043F000786900F063FB012148467B6908AA984769
:1044000000287FF49CAE9DF8203013F0600793D114
:104410009DF821300A3B012B8ED800F04FFB9DF810
:1044200021300A2B00F0FB81484608A900F0CAFAA7
:1044300085E69E48006800EB4C100190002A00F0D1
:104440001A8100283FF478AFA9E7984A176817EB5C
:104450004317CDD170E77B789DF82280984500F016
:104460005A817B78002B40F0C68187F80180B8F133
:10447000000F00F04E8108F1FF30C0B2FCF796F952
:104480000146002800F064814378022B40F06081EF
:10449000C2793878C2F340131B01C2F3801220F0B6
:1044A000300043EA421303433B704B88CDF80C9035
:1044B000CB1801930931019B8B4240F2AB814B78C1
:1044C0000B2B00F0B6814FF0010C042B40F0408123
:1044D0004FF00009019BC8465B1A9BB20293714BD7
:1044E000CDF810C01B781BE0704B1B6813EB481312
:1044F00000F02E81029A1B690398059198470828BD
:104500000246059909F1010903D9029B834280F013
:104510000781644B5FFA89F81B784345C0F0188126
:104520004345A8EB0303DFD85F4A02EB4313E1E7FF
:104530007B7848468DF81A300DF11A02012308A93C
:1045400000F05AFAFBE5BDF82200030A013B020A1B
:10455000C0B20E2B3FF6F0AE01A151F823F000BF20
:104560008147001011460010BD470010394300106C
:10457000394300109F4700101146001039430010C6
:1045800039430010394300103943001039430010FB
:1045900039430010394300107347001008A800F099
:1045A00093FA48469DF82210FFF792FB3B7843F0C0
:1045B00002033B70C3E5BDF82230012B7FF4BCAE93
:1045C0003B78484623F0080308A93B7000F0FAF94D
:1045D000B5E548463B789A0802F00202C3F340135F
:1045E0001343ADF81A300DF11A02022308A900F0A6
:1045F00003FAA4E5BDF82230012B7FF49DAE3B7891
:10460000484643F0080308A93B7000F0DBF996E543
:10461000022A3FF484AEFFF7DDFC024600283FF497
:104620008BAE4846538808A900F0E6F900287FF4CD
:1046300086AD81E69DF824300F2B3FF67DAE194AFA
:104640003B441B791278934227D2184A176817EB1C
:1046500043173FF471AE786900F030FA0121484603
:104660007B6908AA984700287FF469AD64E6002AB0
:104670007FF462AE01929DF821C00CF0FD02012A88
:1046800016D0BCF1000F7FF450AEB844434493F809
:1046900034304846C3F34003A3E77FF44DAE024FE6
:1046A000D9E700BF801D0020D45A0010D01600208A
:1046B000BDF82220BAB9BCF1010F9AF8000000F051
:1046C00085800293FFF7CCFB029BB844434493F8E8
:1046D000342042F0020283F8342093F8342042F070
:1046E000010283F83420019B002B3FF428AD586968
:1046F00000F0E4F9019B01215B6908AA484698474C
:10470000002000F0DBF997F83530DB073FF517ADF7
:104710008AE6FBF797FD484608A900F053F90EE535
:10472000DDF810C0BCF1000F00F08980887800EB44
:104730000C03DBB203E098428CF804807FD007EBD7
:10474000000C9CF804E00130BEF1FF0FC0B2F2D0C3
:104750004FF0E023D3F8F03DD90700D500BE4FF06D
:10476000E023D3F8F03DDA0700D500BE00237B70CC
:10477000E2E5FFF72BFC024600287FF452AFDBE5B1
:10478000FCF70CF8024600283FF4CFAD4846122350
:1047900008A900F031F900287FF4D1ACCCE5FFF78F
:1047A00017FC024600283FF4C7AD4846137808A915
:1047B00000F022F900287FF4C2ACBDE5BDF824105A
:1047C000FBF7FAFF02460028EFD1B5E5CDE902324A
:1047D000FFF75EFB029BB844434493F83410039AFE
:1047E00062F3410183F8341093F8341062F300014E
:1047F00083F8341077E700214846FFF77DFA4846F2
:10480000FFF718FBBB7848460193FFF795FB019B28
:10481000BB702AE6DDF80C90FBF70CFD7BE7484601
:10482000012308A90DF11A028DF81A7000F0E4F8BE
:1048300085E40B7891F803C019444B7845E643466C
:104840000B480492029100F01FFC0A4B02991B785E
:10485000049A43451144BFF42EAE79E74FF0E023AC
:10486000D3F8F03DDB077FF56AAC00BE67E400BF1C
:10487000E4170020801D00202DE9F84F0A9F002A30
:1048800040D00C461E4615464FF0000ADFF87C90DB
:10489000DFF87C8018E0204698F8021099F800B004
:1048A00000F0C2FBE0B121465846FFF741FAF0B1F3
:1048B000A2780AF1010AD10916BF0B9B3A701A704F
:1048C0002278AA4514441DD06278052A0FD1E178D8
:1048D00001F00301B1420AD1A27812F0700FDAD0D0
:1048E0004FF0E023D3F8F03DDA0700D500BE4FF0DB
:1048F000E023D3F8F03DDB0702D40020BDE8F88FB9
:1049000000BEFAE70120BDE8F88F00BF381500208F
:10491000D01700200B46064A06481168DA093432DF
:1049200003F07F0302EB4303184400F053BB00BFC6
:1049300024180020D017002010B5194801F07F0C72
:1049400000EB4C0000EBD11090F834C01CF0010FCC
:1049500008D04FF0E023D3F8F03DDA0700D500BED1
:10496000002010BD00F1300494F804C00D484CF054
:10497000010C007884F804C0FFF75EFA0028F0D13B
:104980004FF0E021227960F300022271227960F376
:1049900082022271D1F8F03DDB07E1D500BEDFE7EE
:1049A000D017002038150020054B01F07F0203EBE3
:1049B000420303EBD11191F8340000F0010070477D
:1049C000D017002030B50B4C8C46A646054608682B
:1049D00049680023AEE803009CF800102846C9434C
:1049E000C4E90233BDE830401A4601F08001FFF708
:1049F000A3BF00BF141700202DE9F041284F4FF04E
:104A00000008BE468C46064608684968BA60AEE8AB
:104A10000300A7F80E801546BCF80620934228BF75
:104A20001346BB819AB11C4633B3DDB197F9003010
:104A3000402C28BF4024002B29DB4146234630462A
:104A4000184AFFF779FF68B10120BDE8F0819CF8B2
:104A500000101346C943304601F08001FFF76CFF98
:104A60000028F1D14FF0E023D3F8F03DDB0700D56B
:104A700000BE0020BDE8F0811A46397801F08001BF
:104A800023463046FFF758FF0028DDD1EAE72246EB
:104A90002946044800F04EFD8021024AF0E700BF9D
:104AA00014170020D41600200022034BC3E9002273
:104AB000C3E902221A61704714170020014B1861E4
:104AC000704700BF1417002030B40246044C002584
:104AD000234600685168C4E9025530BC03C37047DF
:104AE0001417002070B53D4CC90922780646B1EB79
:104AF000D21F1D4682B017D053B14FF0E023D3F838
:104B0000F03DDB0702D4002002B070BD00BEFAE722
:104B10002146FFF7FFF823691BB1224603213046E7
:104B20009847012002B070BD94F90030002B06DBDD
:104B3000A0680028E7D02A46294900F0FBFCE0895C
:104B4000A168E388284480B229448342E081A160BF
:104B500016D03F2D14D9A28994F90040131A9BB2A4
:104B6000402B28BF4023002C27DB90424FF0000150
:104B700031D01B4A3046FFF7DFFE0028D1D1BCE719
:104B8000236923B102213046144A984760B1217845
:104B90000023C94330461A4601F08001FFF7CCFEDE
:104BA0000028AAD00120BDE701463046FFF758F99A
:104BB00080213046FFF754F9B3E7904208D01A46F7
:104BC0000748019300F0B6FC8021054A019BD1E71C
:104BD00080210022CEE70A46CCE700BF1417002050
:104BE000D4160020704700BF01207047704700BFF7
:104BF00010B50C4B00EB400003EB80035C78FFF733
:104C0000EBF908B9002010BDFFF7EEF90028F9D143
:104C1000002CF7D02146FFF7C7FE80F00100C0B29C
:104C200010BD00BF9C1700202DE9F04F81B09DF909
:104C300028909DF92C809DF9307018B1002001B0AA
:104C4000BDE8F08FDFF858A00D469AF8011016461F
:104C50009B460446FFF75EFE0028EFD06BF3070487
:104C600069F30F2468F3174467F31F646DB90523D4
:104C7000094A1674C2F811400020084A9AF8011037
:104C800001B0BDE8F04FFFF757BE034A0623157485
:104C90005674C2F81240EFE76C1700207C17002012
:104CA0009C1700200022024BC3E900229A60704743
:104CB0009C170020012070470022024BC3E900220C
:104CC0009A6070479C170020F0B54B7983B0032B96
:104CD00011D191F804C00C46CCEBCC051235ADB225
:104CE000954202D8234F7A785AB14FF0E023D3F897
:104CF000F03DDA0703D40025284603B0F0BD00BE1E
:104D0000F9E70978621892F801E0BEF1210FECD1C1
:104D1000BA60615C06461144624607F1010CCDF8A9
:104D200004C007F1020CCDF800C0FFF7A5FD002874
:104D3000DBD0A379BA68012B08BFE379B2F807206A
:104D400008BFFB700123BB71A378B978BA803B70B0
:104D50000029D1D010233046074AFFF7EDFD002887
:104D6000CAD14FF0E023D3F8F03DDB07C4D500BE35
:104D7000C2E700BF9C1700208C17002070B51446B6
:104D8000127882B002F01F0CBCF1010F13D1684EF3
:104D9000B4F804C033785FFA8CFC63450BD112F091
:104DA000600205460AD1012902D0012002B070BD7F
:104DB0006378062B22D0002002B070BD202AFAD1E1
:104DC0006378013B0A2BF6D801A252F823F000BF0A
:104DD000AB4E00109B4E00108B4E0010B74D0010D4
:104DE000B74D0010B74D0010B74D0010B74D001073
:104DF000514E0010334E00101D4E001063881B0AE8
:104E0000212B7DD0222BD6D11046FBF7CBFC21469F
:104E10000246B3882846FFF7EFFDC6E7012912D006
:104E20000329C2D161880020C9B2B171FFF7DAFE4F
:104E3000BBE70129B9D161880020090AF171FFF7A8
:104E4000D3FE0028B7D021462846FFF7BBFDACE7CC
:104E5000012960D00329A8D1E0886388102804467E
:104E600028BF102413F0FF014FEA1322314B07D063
:104E7000012805D91878884202D1013CA4B2013337
:104E800000200094FBF7FEF98FE701298DD10B4636
:104E9000294A2146FFF7B0FD87E7012985D10B4656
:104EA000264A2146FFF7A8FD7FE701297FF47DAF61
:104EB000E6886388102EB44628BF4FF0100C13F01C
:104EC000FF004FEA132230D0012E2ED90E46194B87
:104ED0000CF1FF3C1FFA8CFC03F8010B0146CDF8E6
:104EE00000C00020FBF7CCF933189BB2BBB94FF0E0
:104EF000E023D3F8F03DDB077FF55DAF00BE5AE756
:104F0000B268002A3FF457AF2146137802B0BDE8DB
:104F10007040FFF771BDE388102B3FF64CAF214680
:104F20002846044AFFF768FD3FE70026014BD5E716
:104F30009C1700206C170020A2170020A317002048
:104F400070B50C46204D114695F802C095F801E069
:104F5000A44582B00BD0A6451FD04FF0E023D3F874
:104F6000F03DDB0700D500BE002002B070BDE64575
:104F70009CB213D00646C1B902220846134B0094D6
:104F8000FBF780F910233046104AA978FFF7D4FCCC
:104F90000028E2D0012002B070BD9CB261B9084681
:104FA00022460B49FBF76AF9F4E723460221002069
:104FB000064AFFF71BFEE5E7234601210020044ACD
:104FC000FFF714FEE6E700BF9C1700208C170020B7
:104FD0007C170020F8B5037813F001041AD1037888
:104FE00005465A07C3F3800701D52046F8BD0E4693
:104FF0004FF0FF31304600F047FB2B7813F00104EF
:105000000BD12B785B0709D42B78012443F00403E0
:105010002B7003E000242046F8BD3C46304600F0EB
:1050200043FB2046F8BD00BFC378828803F003002D
:105030000228C2F30A0215D003280AD001281CD185
:10504000022940F2FF3308BF4FF4806393420DD32F
:105050007047022914BF40234FF48063934205D365
:105060000120704702290AD0402AF9D94FF0E023E5
:10507000D3F8F03DDB0700D500BE00207047B2F545
:10508000007FEDD0F2E700BF0A44914226D291F8AA
:1050900001C0BCF1050F05D091F800C061448A42FF
:1050A000F5D8704700B591F802C00CF07F0E00EB08
:1050B0004E0E4FEADC1C0EF80C3091F800C0614433
:1050C0008A4209D991F801C0BCF1050FEBD091F8E3
:1050D00000C061448A42F5D85DF804FB704700BF08
:1050E00038B5044600690D4618B14FF0FF3100F0A5
:1050F000CBFA2189638989B29BB2A288994236BFD3
:10510000C3EB4200C81A401880B250B3824209D2A1
:1051100091422CBF891A89188BB29A42638103D8B5
:105120009B1A9BB29A42FBD9E2882168C2F30E0215
:1051300002FB0311284600F0FDF96189012589B2BF
:105140004B1C9BB29942A2880ED9002302FA05F1AA
:105150005B1A9BB22069638108B100F0A5FA28466A
:1051600038BD054663899BB2B3EB420F4FEA42015B
:10517000F0DBEDE7F8B50446C0680E4618B14FF015
:10518000FF3100F081FA2589238961899BB289B2B8
:10519000A2888B4236BFC1EB42015B1A5B189BB2FF
:1051A0009A42ADB208D8E779FF0905D1E06808B1A5
:1051B00000F07AFA3846F8BD954228BF2B4618D33E
:1051C0009B1A9BB29342FBD2E2882068C2F30E0284
:1051D00002FB0300314600F0ADF96B1C9BB29D420F
:1051E000A28812D9002351005B1A9BB201272381A8
:1051F000DCE7E2882068C2F30E0205FB02003146BC
:1052000000F098F90135A288ABB2B3EB420F4FEA38
:105210004201EBDBE8E700BF10B50446C06818B1F7
:105220004FF0FF3100F030FA206918B14FF0FF3134
:1052300000F02AFA0023E0686381238108B100F0BE
:1052400033FA206908B100F02FFA012010BD00BF29
:1052500070B5002501260468002BE5668446616070
:1052600028469DF810E0E66616DD5D1E616F102988
:10527000FCD000B30021A84204BF8EF0010641EA31
:10528000462141F480712161D4F88010616B490698
:1052900005D54FF0FF30636D8CF804E070BDA16F51
:1052A0000029F1D021690130834202F8011BF3D0BB
:1052B000DCF80040DAE79CF804108902DBE700BF65
:1052C0002DE9F04100270124944602680546D7667F
:1052D0005160D4661C1E38469DF818601EDD297981
:1052E00086F0010789027F0204F1FF3E70450CBF82
:1052F000B8464FF000081CF8013B0B4343EA080393
:105300001361536BD906FCD5D2F8801049B97045AA
:105310001CD0013084424FF00001E7D12E71BDE86E
:10532000F0814FF00108536D536B9B05FCD5136E54
:10533000B8F1000FEDD069B1CB070BD411F0080F15
:1053400008BF4FF0FF302E71BDE8F081002EE0D194
:10535000B046E9E74FF0FF30E0E700BFF8B504469C
:1053600005200F46FCF7E6F900EB570CBCFBF7FCF9
:10537000204D0CEB4C02A5FB02651F49AE088F4285
:1053800000EB4003ACEB95052ED801F1D64101F5B9
:10539000A10101F62C01A1FB03139B0D0133002198
:1053A0004F2A98BF01222468B0FBFCF0E166216817
:1053B00004F5805781F0040101F00601396088BFCF
:1053C0000C49E56184BFA1FB021292092662C4F870
:1053D000A0202246012152F87C5F6B409BB202F56F
:1053E00080521360E166F8BD0449A1FB0313DB0D95
:1053F0000133D4E7CDCCCCCC3F420F00893BE655FE
:105400000E4A30B4904214BF202210220C4D0D4B96
:105410000D4C2A601A60A36832EA0303FBD140F204
:105420006515032402680371D3661560D363936323
:10543000C2F8884030BCFFF791BF00BF3C15002088
:1054400000200240003002400000024010B49DF8ED
:10545000044001945DF8044BFFF732BF10B49DF88F
:10546000044001945DF8044BFFF7F2BE704700BFA3
:10547000704700BF30B50C4683B005466846FEF75E
:10548000D5FB082C28BF082469462846224600F090
:1054900051F8204603B030BD830730B546D084189C
:1054A000844604E003F8011B9D0704D09C46A445F4
:1054B0006346F7D130BD013A0244A2EB0C02032A45
:1054C00029D9CCB20F2A04EB042404EB04442FD9CD
:1054D000A2F1100C03F110052CF00F0CAC44C3E941
:1054E0000044C3E9024410336345F8D112F00C0FB5
:1054F00002F00F0E18D02EF0030CAEF104051A4680
:105500009C4442F8044B6245FBD125F0030404336C
:105510000EF003022344002ACCD0C9B21A4403F887
:10552000011B9342FBD130BD7246F4E70346C6E748
:105530009646E0E7844641EA000313F0030349D1AD
:10554000403A23D30B6803604B6843608B688360E9
:10555000CB68C3600B6903614B6943618B698361ED
:10556000CB69C3610B6A03624B6A43628B6A8362D5
:10557000CB6AC3620B6B03634B6B43638B6B8363BD
:10558000CB6BC36340304031403ADBD230320BD377
:105590000B6803604B6843608B688360CB68C360B3
:1055A00010301031103AF3D20C3205D351F8043BCD
:1055B00040F8043B043AF9D2043208D0D2071CBFA9
:1055C00011F8013B00F8013B01D30B8803806046D2
:1055D000704700BF082A13D38B07B1D010F0030324
:1055E000AED0C3F10403D21ADB071CBF11F8013B94
:1055F00000F8013BA4D331F8023B20F8023B9FE7BF
:10560000043AD9D3013A11F8013B00F8013BF9D231
:105610000B7803704B7843708B78837060467047CB
:1056200020F0030110F00300C0F1000051F8043B2A
:1056300000F1040C4FEACC0C6FF000021CBF22FA00
:105640000CF213434FF0010C4CEA0C2C4CEA0C4CBE
:10565000A3EB0C0222EA030212EACC1204BF51F8B7
:10566000043B0430F4D0C2F1000102EA0102B2FAB4
:1056700082F2C2F11F0200EBD2007047F8B500BF02
:105680005FF800F0590200205FF800F0E50100200B
:105690005FF800F0BD0A00205FF800F03D10002028
:1056A0005FF800F0ED1000205FF800F01D02002010
:1056B0005FF800F0450A00205FF800F0790A00204A
:1056C0005FF800F07D0100205FF800F01D0A002067
:1056D000191900108D180010C1180010AD19001014
:1056E000F91800101118001041190010FD170010D2
:1056F000510E001045190010011200105D18001025
:105700002D190010DD180010AD0A0010D50A001088
:08571000FD3B00101102001026
:10571800434952434C45000000000000494D5500E4
:105728004D6F646520746F67676C65643A202573F4
:105738000A0000004D6F757365206D6F76653A201D
:1057480064783D25642064793D25642020286178AB
:105758003D252E32662061793D252E3266290A00C4
:10576800494D55206D6F7573652072656164792E9A
:105778002054696C7420626F61726420746F206DAC
:105788006F766520637572736F722E20427574741C
:105798006F6E206F6E204750313620746F67676CCC
:1057A800657320636972636C65206D6F64652E0094
:1057B800303132333435363738394142434445463F
:1057C8000000000054696E795553420054696E799F
:1057D8005553422044657669636500000A2A2A2ADF
:1057E8002050414E4943202A2A2A0A000A00000074
:1057F8004E6F207370696E6C6F636B732061726596
:1058080020617661696C61626C6500004861726450
:105818007761726520616C61726D20256420616C0E
:10582800726561647920636C61696D65640000006C
:1058380048617264206173736572740052656C65A7
:1058480061736500626F6F74325F7732357130381B
:1058580030000000302E3100322E322E3000000091
:105868007069636F325F7700687736004A756E201B
:105878003133203230323600666E692B000000006A
:10588800666E69006E616E00666E692D000000002C
:10589800556E68616E646C65642049525120307899
:1058A80025780A00657020253032582077617320EA
:1058B800616C726561647920617661696C61626CA2
:1058C8006500000043616E277420636F6E74696E13
:1058D80075652078666572206F6E20696E616374E5
:1058E800697665206570202530325800090400006B
:1058F80009022200010100A032090400000103008E
:10590800000009211101000122EF000705810310A1
:105918000005000005010906A1018501050719E038
:1059280029E715002501950875018102950175087B
:10593800810105081901290595057501910295014F
:1059480075039101050719002AFF00150026FF00BD
:10595800950675088100C005010902A101850209A3
:1059680001A10005091901290515002501950575ED
:10597800018102950175038101050109300931157D
:1059880081257F95027508810609381581257F953F
:105998000175088106050C0A38021581257F9501D5
:1059A80075088106C0C0050C0901A1018503150011
:1059B80026FF0319002AFF03950175108100C00511
:1059C800010905A1018504050109300931093209D8
:1059D80035093309341581257F9506750881020537
:1059E800010939150125083500463B01950175085F
:1059F8008102050919012920150025019520750145
:105A08008102C0001201000200000040FECA0440EA
:105A1800000101020301000006005250D3F0754254
:105A28004458001006005250E182887F4C580010FC
:105A3800060052503ABCA9115C580010060052509A
:105A4800ABB360536058001006005250BBFF3CB621
:105A58006858001006005250861C03027058001047
:105A6800060052505422A29D74580010050052504E
:105A7800DE65F4686C6F0010000000000000F03F65
:105A88000000000000002440000000000000594011
:105A98000000000000408F40000000000088C34064
:105AA80000000000006AF8400000000080842E41D9
:105AB80000000000D01263410000000084D7974125
:105AC8000000000065CDCD410D0A00000000000077
